:020000040800F2
:10000000581B00203D01000885340008092D000818
:100010008134000849080008D7600008000000008B
:10002000000000000000000000000000253900086A
:100030000D090008000000007B380008273900087F
:100040005701000857010008570100085701000830
:100050005701000857010008570100085701000820
:100060005701000857010008570100085701000810
:100070005701000857010008570100085701000800
:1000800057010008570100085701000857010008F0
:1000900025600008570100085701000857010008B3
:1000A0000000000057010008570100085701000830
:1000B00057010008570100085701000857010008C0
:1000C00057010008570100085701000857010008B0
:1000D00057010008570100085701000857010008A0
:1000E0005701000857010008570100085701000890
:1000F00057010008000000005701000857010008E0
:10010000000000000000000057010008570100082F
:1001100057010008570100085701000800000000BF
:1001200057010008DFF810D000F000FB004800473E
:10013000356C0008AFF30080581B0020064880474C
:1001400006480047FEE7FEE7FEE7FEE7FEE7FEE7BC
:10015000FEE7FEE7FEE7FEE79D39000825010008FF
:100160002DE9F05F0546002092469B4688460646EC
:10017000814640241BE0284641464746224600F07F
:10018000FEF953465A46C01A914110D311461846FB
:10019000224600F0E5F92D1A67EB01084F4622468A
:1001A0000120002100F0DCF917EB00094E41201E70
:1001B000A4F10104DFDC484631462A464346BDE847
:1001C000F09F40EA01039B0703D009E008C9121F12
:1001D00008C0042AFAD203E011F8013B00F8013B01
:1001E000521EF9D27047D2B201E000F8012B491E2D
:1001F000FBD270470022F6E710B513460A460446C4
:100200001946FFF7F0FF204610BD2DE9FE4F80464E
:1002100081EA0300C00F0C46009021F0004123F05A
:100220000045B8EB0200A94105D240462146904660
:100230001C460B46024623F00040104347D0270DD2
:10024000C7F30A00C3F30A510290401A01904028F4
:100250006BDAC3F3130040F4801B0098924620B180
:100260000023D2EB030A63EB0B0B01985946C0F154
:100270004002504600F074F906460D465046594675
:10028000019A00F08CF910EB08006141002487EA24
:10029000115284EAE7731A4340D0009A62B3019A7C
:1002A000012A4FEA075215DC001B61EB02014FF0F7
:1002B000004202EA0752CDE90042001C41F58011DC
:1002C00032462B4600F08CF903B0BDE8F08F404673
:1002D0002146F9E7001B61EB0201001C41F5801388
:1002E00000185B412018A2F5001747EB030140EA14
:1002F000D570B6196D4111E06D084FEA360645EA32
:10030000C0754FEA0752001B61EB0201001C41F56A
:10031000801149084FEA30000019514132462B46FE
:1003200003B0BDE8F04F00F04CB900980122400046
:100330000023D0EB020263EBE073009821464FEA02
:10034000E074B8EB000061EB0401E9E783F00043DF
:100350005BE781F0004158E72DE9FE4F81EA030495
:1003600004F0004421F0004100944FF0000B23F012
:10037000004350EA01045ED052EA03045BD0C3F3A9
:100380000A54C1F30A552C44A4F2F3340194A0FB9F
:100390000254C1F3130141F48011C3F3130343F476
:1003A000801301FB024400FB034E840A970A44EACF
:1003B000815447EA8357A4FB076802958D0A05FB21
:1003C00007854FEA932C04FB0C542705029D4FEA46
:1003D000065847EA1637B5EB08056EEB070C870E93
:1003E000920E47EA811742EA8312A7FB0201B6EB9D
:1003F0000B0164EB00042B0D43EA0C335E1844EB55
:100400001C50DA465146E7FB0201C5F313044FEADC
:100410000B3343EA14534FEA0432019C43EA0603C8
:10042000A4F10C040294009CCDE900B400F0D8F8CB
:1004300003B0BDE8F08F00200146F9E72DE9F04D4B
:1004400081EA030404F0004B21F0004514464FF00C
:10045000000A23F0004150EA050220D054EA0102CC
:100460001DD0C5F30A570246C5F31303C1F31300A9
:10047000C1F30A5640F4801543F48013A7EB060835
:10048000101BD64608F2FD3873EB050002D308F1C5
:10049000010801E092185B41B8F1000F03DA002077
:1004A0000146BDE8F08D00204FF4801106468446D9
:1004B0000EE0171B73EB050705D3121B63EB050357
:1004C00006434CEA010C49084FEA300092185B41A0
:1004D00050EA0107EDD152EA030012D082EA04008B
:1004E00083EA0501084305D0101BAB4106D2012267
:1004F000002306E000224FF0004302E06FF001020B
:1005000053101AEB06004CEB085110EB0A0041EBBC
:100510000B01BDE8F04D00F054B80EB540F2334188
:1005200002910021CDE900110A460B4600F058F86F
:1005300003B000BD30B50B46014600202022012447
:1005400009E021FA02F59D4205D303FA02F5491BA1
:1005500004FA02F52844151EA2F10102F1DC30BDB7
:10056000202A04DB203A00FA02F100207047914073
:10057000C2F1200320FA03F3194390407047202A68
:1005800004DB203A21FA02F00021704721FA02F33D
:10059000D040C2F120029140084319467047202AFA
:1005A00006DBCB17203A41FA02F043EAE07306E09B
:1005B00041FA02F3D040C2F12002914008431946AB
:1005C000704710B5141E73F1000408DA401C41F1A5
:1005D000000192185B411A4301D120F0010010BDC7
:1005E0002DE9F04D92469B4611B1B1FA81F202E03D
:1005F000B0FA80F220329046FFF7B2FF04460F4671
:1006000040EA0A0041EA0B0153465A46084313D018
:10061000114653EA010019D0C8F140025046FFF7D5
:10062000AEFF05460E46504659464246FFF798FF34
:10063000084305D0012004E020463946BDE8F08D8E
:100640000020054346EAE0762C4337430A986305C9
:10065000E40AA0EB08000022FD0A44EA47540A30ED
:1006600002D500200146E9E7010510196941DDE9DD
:10067000084500196941BDE8F04DA2E770B521F0C9
:10068000004303430CD0C1F30A550024D5EB040505
:1006900064EB0403D617AD1AB34102DB0020014618
:1006A00070BD201841EB025170BD0EB5C10F80EA3C
:1006B000E0700844CA07002140F233438DE80E0081
:1006C0000A460B46FFF78CFF03B000BDC1F30A5288
:1006D000C1F3130140F2FF3341F480119A4202DA70
:1006E00000200146704740F233439A42A2F233425F
:1006F00002DC5242FFF743BFFFF732BF30B5041EA2
:1007000071F1000404DB4FF00044404264EB01014E
:10071000141E73F1000405DB1C464FF000435242E7
:1007200063EB0403994208BF904230BD064C074D6D
:1007300006E0E06840F0010394E8070098471034B1
:10074000AC42F6D3FFF7F2FC40780008607800086E
:100750002DE9F04D00231A461B1A8A4103DB0020C5
:100760000146BDE8F08DC1F30A52C1F3130141F413
:1007700080154FF0000BD10702D100186D41521EB9
:100780000027044640F2FF11384601EB620A3E465C
:100790008046024600204FF48011FFF7F0FEC21998
:1007A0007141BB1846EB0100B4EB030C75EB000C78
:1007B00004D3E41A65EB000517460E46241908F128
:1007C00001006D4180463428E3DDF91946EB06004F
:1007D000091BA84103D24FF0FF32134601E000226B
:1007E00013461BEB070046EB0A51BDE8F04DFFF73F
:1007F000E8BE70B58C1810F8015B15F0070301D145
:1008000010F8013B2A1106D110F8012B03E010F873
:10081000016B01F8016B5B1EF9D12B0705D4002396
:10082000521E0DD401F8013BFAE710F8013BCB1A38
:10083000921C03E013F8015B01F8015B521EF9D52D
:10084000A142D8D3002070BD00BFFEE70346042BB1
:1008500015D007DC7BB1012B0ED0022B0DD0032B62
:1008600012D10BE0202B0BD0212B0AD0222B09D048
:10087000232B09D107E008E007E006E005E004E0EB
:1008800003E002E001E000E000BF00BF002070478D
:100890000020704710B500220449054803F0BFF955
:1008A0000449034803F0B4F9002010BD600A002099
:1008B000DC0100207806002070B504460D46214674
:1008C000034803F0A5F9024803F07EF9002070BD4B
:1008D000DC0100202DE9F04104460D4600260A48BF
:1008E000D0F89072D7F8140210B10120BDE8F08161
:1008F0002A462146044803F092F9034803F013FA0C
:1009000006463046F2E70000DC010020704772B670
:1009100000BFFEE770B50B4804680A48D038D0F82D
:10092000D450084808300668344454B108220649B7
:10093000204602F008FD042203491031284602F047
:1009400002FD70BDD000F81F3600002070B50446CF
:1009500000F0F2F806462546681C10B1044800680D
:10096000054400BF00F0E8F8801BA842FAD370BD30
:100970006800002078B503460A46002100240020C4
:10098000C3E001268E40156805EA0604002C72D0EB
:10099000157905F00305012D04D0157905F003053F
:1009A000022D13D198684E000325B540A8434E0090
:1009B000D568B54028439860586801258D40A84304
:1009C0001579C5F300158D4028435860157905F059
:1009D0000305032D09D0D8684E000325B540A84370
:1009E0004E009568B5402843D860157905F0030599
:1009F000022D13D1CE0803F1200555F826004D072E
:100A0000EE0E0F25B540A8434E07F60E1569B5400A
:100A10002843CE0803F1200545F8260018684E004B
:100A20000325B540A843157905F003054E00B540F0
:100A300028431860556805F44035002D64D000BF88
:100A4000354D2D6845F00105334E356035462D682E
:100A500005F00105009500BF00BF304D8E0855F828
:100A600026008D072E0F0F25B540A8432C4DAB4215
:100A700002D1002515E047E02A4DAB4201D1012506
:100A80000FE0294DAB4201D102250AE0274DAB42D0
:100A900001D1032505E0264DAB4201D1042500E03C
:100AA00005258E07360FB54028431C4D8E0845F8A6
:100AB0002600204D2868A043556805F4803505B10F
:100AC00020431C4D28602D1D2868A043556805F45F
:100AD000003505B12043174D2D1D28602D1D2868B8
:100AE000A043556805F4801505B12043114D083524
:100AF00028602D1D2868A043556805F4001505B130
:100B000020430C4D0C352860491C1568CD40002D44
:100B10007FF437AF78BD0000203802400800014064
:100B2000000002400004024000080240000C0240A5
:100B300000100240000401400148006870470000B6
:100B40006000002070B504460CB9012070BD94F817
:100B50003D0028B9002084F83C00204600F082FCCB
:100B6000242084F83D002068006820F001002168FE
:100B700008602068006840F4004021680860206830
:100B8000006820F400402168086001F05BFD054624
:100B90005C496068884206D85B48854201D20120E2
:100BA00007E0002005E05948854201D2012000E01D
:100BB0000020012800D1C9E75548B5FBF0F62068B0
:100BC000406820F03F003043216848604D4960682C
:100BD000884201D8701C07E04FF4967070434FF4C0
:100BE0007A71B0FBF1F0401C2168096A21F03F01E5
:100BF00008432168086243496068884214D8681E27
:100C000061684900B0FBF1F0401CC0F30B00042800
:100C100001D204203DE0681E61684900B0FBF1F09C
:100C2000401CC0F30B0034E0A06838B9681E61684E
:100C300001EB4101B0FBF1F0401C0AE0681E616865
:100C400001EBC10202EB0111B0FBF1F0401C40F4DA
:100C50008040C0F30B0008B901201AE0A06848B931
:100C6000681E616801EB4101B0FBF1F0401CC0F36C
:100C70000B000CE0681E616801EBC10202EB011180
:100C8000B0FBF1F0401CC0F30B0040F4804040F496
:100C900000402168C9694CF6FF72914308432168FE
:100CA000C861D4E9070108432168096821F0C0013F
:100CB000084321680860D4E9031008432168896863
:100CC00048F2FF329143084321688860D4E9050166
:100CD00008432168C96821F0FF0108432168C86002
:100CE0002068006840F0010021680860002020644E
:100CF000202084F83D000020206384F83E0000BFDF
:100D000024E70000A086010080841E0000093D0049
:100D100040420F002DE9F84304468946174698469D
:100D2000089EFFF709FF054694F83D0020287DD175
:100D300019230122B2492046009502F0F1F910B1C1
:100D40000220BDE8F88300BF94F83C00012801D1DF
:100D50000220F6E7012084F83C0000BF206800680C
:100D600000F0010028B92068006840F00100216807
:100D700008602068006820F4006021680860222074
:100D800084F83D00102084F83E0000202064676253
:100D9000A4F82A80608D20859A48E0622B4632466E
:100DA0004946204601F0D2FF08B10120C9E7208D55
:100DB00088B900BF0020009020684069009020683A
:100DC0008069009000BF00BF2068006840F4007098
:100DD0002168086047E0208D012817D1206800684D
:100DE00020F480602168086000BF00200090206827
:100DF0004069009020688069009000BF00BF2068B3
:100E0000006840F40070216808602CE0208D022802
:100E100018D12068006820F480602168086020688C
:100E2000006840F400602168086000E0E6E000BF70
:100E30000020009020684069009020688069009040
:100E400000BF10E02068006840F4806021680860FE
:100E500000BF0020009020684069009020688069F1
:100E6000009000BF00BFBAE0208D03287ED8208DFF
:100E7000012815D12A463146204602F0F6F908B17C
:100E800001205EE720680069616A0870606A401CA2
:100E90006062208D401E2085608D401E60859EE032
:100EA000208D02282AD1334600225749204600953A
:100EB00002F036F908B1012043E72068006840F4E9
:100EC00000702168086020680069616A0870606AC3
:100ED000401C6062208D401E2085608D401E608514
:100EE00020680069616A0870606A401C6062208D39
:100EF000401E2085608D401E608570E033460022D4
:100F000041492046009502F00BF908B1012018E78D
:100F10002068006820F4806021680860206800690B
:100F2000616A0870606A401C6062208D401E2085E6
:100F3000608D401E6085334600223349204600956F
:100F400002F0EEF808B10120FBE62068006840F4EA
:100F500000702168086020680069616A0870606A32
:100F6000401C6062208D401E208500E010E0608DF6
:100F7000401E608520680069616A0870606A401CD4
:100F80006062208D401E2085608D401E608526E0B9
:100F90002A463146204602F068F908B10120D0E621
:100FA00020680069616A0870606A401C6062208D78
:100FB000401E2085608D401E608520684069C0F31A
:100FC000800060B120680069616A0870606A401C36
:100FD0006062208D401E2085608D401E6085208DC2
:100FE00000287FF441AF202084F83D00002084F8E1
:100FF0003E0000BF84F83C0000BFA2E60220A0E64D
:10100000020010000000FFFF040001002DE9FC5F5A
:1010100004460F4690469946DDE90CAB0E9EFFF75D
:101020008BFD054694F83D00202870D1192301223C
:10103000B0492046009502F073F810B10220BDE8D7
:10104000FC9F00BF94F83C00012801D10220F6E784
:10105000012084F83C0000BF2068006800F0010017
:1010600028B92068006840F0010021680860206805
:10107000006820F4006021680860222084F83D00A8
:10108000402084F83E0000202064C4F824A0A4F886
:101090002AB0608D20859848E0624B46424639462A
:1010A0002046CDE9006501F0EDFE08B10120C6E75C
:1010B000208D88B900BF0020019020684069019010
:1010C00020688069019000BF00BF2068006840F47C
:1010D00000702168086040E0208D012818D1206848
:1010E000006820F480602168086000BF0020019043
:1010F00020684069019020688069019000BF00BFAE
:101100002068006840F400702168086025E0EFE086
:10111000208D022816D12068006820F480602168A4
:1011200008602068006840F400602168086000BF23
:10113000002001902068406901902068806901903A
:1011400000BF0AE000BF00200190206840690190C4
:1011500020688069019000BF00BFBAE0208D03289D
:101160007ED8208D012815D12A463146204602F02E
:101170007CF808B1012062E720680069616A0870A4
:10118000606A401C6062208D401E2085608D401E7C
:1011900060859EE0208D02282AD1334600225749DF
:1011A0002046009501F0BCFF08B1012047E7206808
:1011B000006840F400702168086020680069616A76
:1011C0000870606A401C6062208D401E2085608D22
:1011D000401E608520680069616A0870606A401C72
:1011E0006062208D401E2085608D401E608570E00D
:1011F0003346002241492046009501F091FF08B195
:1012000001201CE72068006820F4806021680860E5
:1012100020680069616A0870606A401C6062208D05
:10122000401E2085608D401E608533460022334974
:101230002046009501F074FF08B10120FFE6206808
:10124000006840F400702168086020680069616AE5
:101250000870606A401C6062208D401E208500E09E
:1012600010E0608D401E608520680069616A08702A
:10127000606A401C6062208D401E2085608D401E8B
:10128000608526E02A463146204601F0EEFF08B18F
:101290000120D4E620680069616A0870606A401C19
:1012A0006062208D401E2085608D401E6085206814
:1012B0004069C0F3800060B120680069616A08700D
:1012C000606A401C6062208D401E2085608D401E3B
:1012D0006085208D00287FF441AF202084F83D00F8
:1012E000002084F83E0000BF84F83C0000BFA6E662
:1012F0000220A4E6020010000000FFFF040001002D
:101300002DE9FC5F04460F4690469946DDE90CAB9B
:101310000E9EFFF711FC054694F83D0020287DD174
:10132000192301224D492046009501F0F9FE10B124
:101330000220BDE8FC9F00BF94F83C00012801D1C9
:101340000220F6E7012084F83C0000BF2068006816
:1013500000F0010028B92068006840F00100216811
:1013600008602068006820F400602168086021207F
:1013700084F83D00402084F83E0000202064C4F83A
:1013800024A0A4F82AB0608D20853548E0624B4641
:10139000424639462046CDE9006501F023FE08B1FA
:1013A0000120C6E731E02A463146204601F09DFF84
:1013B00050B1206C042805D12068006840F400700A
:1013C000216808600120B4E7606A0078216808613C
:1013D000606A401C6062208D401E2085608D401E2A
:1013E000608520684069C0F3800070B1208D60B1D5
:1013F000606A007821680861606A401C6062208D24
:10140000401E2085608D401E6085208D0028CAD139
:101410002A463146204601F055FE00E01CE050B15E
:10142000206C042805D12068006840F40070216811
:10143000086001207DE72068006840F400702168A2
:101440000860202084F83D00002084F83E0000BFA2
:1014500084F83C0000BF6CE702206AE7020010003D
:101460000000FFFF10B586B00446142101A8FEF766
:10147000C1FE1949206888422BD100BF1748006877
:1014800040F00200154908600846006800F00200BC
:10149000009000BF00BFC0200190122002900120E8
:1014A0000390032004900420059001A90C48FFF745
:1014B00061FA00BF09480830006840F4001007498D
:1014C000083108600846006800F40010009000BF72
:1014D00000BF06B010BD0000005400401C380240A0
:1014E00000040240034800680349096808440149B0
:1014F00008607047600000206800002010B50024DC
:10150000032000F0B3F8002000F008F808B101242F
:1015100001E000F02FF8204610BD000070B5044631
:10152000002511480068D8B10F4800684FF47A715F
:10153000B1FBF0F00D490968B1FBF0F6304601F05F
:10154000C9FB58B9102C07D200222146501E00F0CA
:101550004FF80748046004E0012502E0012500E09F
:101560000125284670BD0000680000206C000020A6
:101570006400002008B500BF1448006840F0004037
:10158000124908600846006800F00040009000BF63
:1015900000BF00BF081F006840F00100091F08607D
:1015A0000846006800F00100009000BF00BF00BFC7
:1015B000081D006840F08050091D0860084600685A
:1015C00000F08050009000BF00BF08BD24380240EA
:1015D00001460846002809DB00F01F0301229A405B
:1015E00043099B0003F1E023C3F8002100BF7047CB
:1015F0002DE9F05F80460D461646002704F09CFD5D
:10160000074639462A46334601F00700C0F1070A6B
:10161000BAF1040F02D94FF0040A01E0C0F1070A41
:10162000D14600F1040ABAF1070F02D24FF0000AC6
:1016300001E0A0F1030AD4464FF0010A0AFA09FAC0
:10164000AAF1010A0AEA020A0AFA0CFA4FF0010B9F
:101650000BFA0CFBABF1010B0BEA030B4AEA0B0490
:101660002146404604F070FDBDE8F09F00BF00F049
:101670000702064B19684FF6FF031940044B0B4352
:1016800043EA0221014B196000BF70470CED00E0F6
:101690000000FA0570B505460C4604F0800080286D
:1016A00008D104F0070000EB800605F1280000EBEC
:1016B000C60105E004EB840605F5B47000EBC60135
:1016C0001AB900200873CB8004E0012008730B8155
:1016D000180C4881002070BD012906D1064A5268C5
:1016E00042F00102044B5A6005E0034A526822F0BE
:1016F0000102014B5A6070470000014070B504467A
:101700000D4605EB850304F1280101EBC3014A698D
:101710002946D4F8E80202F0C4FD70BD70B5044655
:101720000D4605EB850304F5B47101EBC3014A696D
:101730002946D4F8E80202F034FE70BD70B50446C4
:101740000E4606F0800080280AD106F0070000EB64
:10175000800104F1280000EBC1050120687009E058
:1017600006F0070000EB800104F5B47000EBC10542
:101770000020687006F00700287000BF94F8A802E7
:10178000012801D1022070BD012084F8A80200BF09
:101790002946206803F086FC00BF002084F8A802D8
:1017A00000BF00BFEFE770B504460E4606F00F001D
:1017B0006168884201D9012070BD06F08000802850
:1017C0000AD106F0070000EB800104F1280000EBCD
:1017D000C1050120687009E006F0070000EB8001F8
:1017E00004F5B47000EBC105002068700020A870FB
:1017F00006F00700287000BF94F8A802012801D164
:101800000220D9E7012084F8A80200BF29462068F9
:1018100003F09EFD00BF002084F8A80200BF00BFB7
:10182000CAE72DE9F04105460C46174607F480400B
:10183000002850D02868B0F85010207801EBC00084
:10184000801C296801F5806131F81000C0F3090699
:10185000A069B04203D3A069801BA06101E0002011
:10186000A061A069A8B900BF22785200296831F8A8
:1018700012104BF68F7201EA020080F4005040F41F
:10188000004141F0800123785B002A6822F81310A0
:1018900000BF07F04000A8B100BF00BF227852008F
:1018A000296831F8121048F68F7201EA020040F4FC
:1018B000004141F0C00123785B002A6822F8131030
:1018C00000BF00BF002E55D02289616933462868C9
:1018D00004F0B4FB4EE02868B0F85010207801EB1B
:1018E000C000801D296801F5806131F81000C0F347
:1018F0000906A069B04203D3A069801BA06101E082
:101900000020A061A069A8B900BF22785200296810
:1019100031F812104BF68F7201EA020080F4005089
:1019200040F4004141F0800123785B002A6822F8EE
:10193000131000BF07F04000A8B900BF00BF227815
:101940005200296831F8121048F68F7201EA02003D
:1019500040F4004141F0C00123785B002A6822F87E
:10196000131000BF00BF2EB1628961693346286839
:1019700004F064FB3046BDE8F0812DE9F0470546F0
:101980000C46904608F04000002871D02868B0F856
:101990005010207801EBC000801C296801F580619F
:1019A00031F81000C0F30907A069B84203D9A06953
:1019B000C01BA06101E00020A061A06900287ED1C9
:1019C00000BF6078C8B900BF29682A68B2F8502003
:1019D00011442278022303EBC20201F5806303EB7A
:1019E000420000BF028848F2FF331A40028002889A
:1019F00042F40042028000BF13E06078012810D159
:101A000000BF28682A68B2F85020104422780223C8
:101A100003EBC20200F5806303EB420100220A805F
:101A200000BF00BF00BF2968607810BB00BF2B68F3
:101A3000D5F800C0BCF850C0634494F800C04FF023
:101A4000060909EBCC0C03F5806909EB4C0000BFDB
:101A5000B0F800C048F2FF390CEA090CA0F800C049
:101A6000B0F800C04CF4004CA0F800C000BF11E07A
:101A7000C0E0607801280DD12868B0F8500001441A
:101A80002078062303EBC00001F5806303EB4002DE
:101A90000020108000BF21782846FFF72FFE08F4B1
:101AA0008040002816D000BF00BF2278520029686D
:101AB00031F8121048F68F7201EA020000E00AE0E5
:101AC00040F4004141F4814123785B002A6822F808
:101AD000131000BFCAE108F48040A8B100BF00BFE6
:101AE00022785200296831F8121048F68F7201EA04
:101AF000020040F4004141F4814223785B002968F0
:101B000021F8132000BF00BF94F824000128E1D180
:101B1000606938446061E0693844E0612169206AA5
:101B2000884204D32669206A801B20620BE0206A69
:101B300020B93E46002084F8240004E0002084F808
:101B40002400266A206200BF6078B8BB00BF2A6804
:101B50002968B1F850100A442178022303EBC1012F
:101B600002F5806303EB4101084600BF56B90388C4
:101B700048F2FF3C03EA0C030380038843F400436C
:101B8000038019E03E2E0BD800BF710806F0010358
:101B900003B1491C4FF6FF7303EA812303800BE076
:101BA00000BF710906F01F0303B9491E4FF400433B
:101BB00043EA8123038000BF00BF13E0FFE76078A2
:101BC00001280FD100BF28682A68B2F850201044BD
:101BD0002278022303EBC20200F5806303EB42018B
:101BE0000E8000BF00BFB3B222896169286804F08B
:101BF00051FA3BE12868B0F85010207801EBC000A2
:101C0000801D296801F5806131F81000C0F30907D3
:101C1000A069B84203D3A069C01BA06101E0002005
:101C2000A061A06900287DD100BF6078C8B900BF5D
:101C300029682A68B2F8502011442278022303EB65
:101C4000C20201F5806303EB420000BF028848F244
:101C5000FF331A400280028842F40042028000BF33
:101C600013E06078012810D100BF28682A68B2F814
:101C7000502010442278022303EBC20200F5806357
:101C800003EB420100220A8000BF00BF00BF2968A9
:101C9000607808BB00BF2B68D5F800C0BCF850C006
:101CA000634494F800C04FF0060909EBCC0C03F52F
:101CB000806909EB4C0000BFB0F800C048F2FF3962
:101CC0000CEA090CA0F800C0B0F800C04CF4004CBD
:101CD000A0F800C000BF10E0607801280DD128688E
:101CE000B0F8500001442078062303EBC00001F552
:101CF000806303EB40020020108000BF217828465B
:101D0000FFF7FCFC08F48040002816D100BF00BF9C
:101D100022785200296831F8121048F68F7201EAD1
:101D2000020000E00AE040F4004141F481412378E0
:101D30005B002A6822F8131000BF97E008F4804087
:101D4000A8B900BF00BF22785200296831F81210EC
:101D500048F68F7201EA020040F4004141F48141EB
:101D600023785B002A6822F8131000BF00BF94F8A4
:101D7000240001287AD1606938446061E069384400
:101D8000E0612169206A884204D32669206A801BA9
:101D900020620BE0206A20B93E46002084F824002F
:101DA00004E0266A0020206284F8240000BF2A682C
:101DB000607890BB00BFD5F800C02968B1F850101A
:101DC0008C4421784FF0060909EBC1010CF58069BC
:101DD00009EB4101084600BF76B9B0F8009048F21F
:101DE000FF3A09EA0A09A0F80090B0F8009049F417
:101DF0000049A0F8009020E03E2E0FD800BF7108E7
:101E000006F00109B9F1000F00D0491C4FF6FF7927
:101E100009EA8129A0F800900FE010E000BF7109E5
:101E200006F01F09B9F1000F00D1491E4FF4004917
:101E300049EA8129A0F8009000BF00BF0FE0607858
:101E400001280CD12868B0F85000024420780621FF
:101E500001EBC00002F5806101EB40031E8000BF72
:101E6000B3B262896169286804F014F900BF22786E
:101E70005200296831F8121048F6BF7201EA0200D8
:101E800080F0100080F0200040F4004141F080011B
:101E900023785B002A6822F8131000BF0020BDE8F9
:101EA000F087024601F0070000EB800302F5B470F2
:101EB00000EBC300C06970472DE9F04705460E46A8
:101EC00090461F464FF0000906F0800080280AD196
:101ED00006F0070000EB800105F1280000EBC104CB
:101EE0000120607009E006F0070000EB800105F5B5
:101EF000B47000EBC1040020607006F00700207091
:101F0000C4F81080E770607808B12078E081022F73
:101F100001D10020207100BF95F8A802012802D14C
:101F20000220BDE8F087012085F8A80200BF214605
:101F3000286802F091FE00BF002085F8A80200BFCB
:101F40004846EEE72DE9F04105460E46174698460D
:101F500006F0070000EB800105F5B47000EBC1044A
:101F60006761C4F818800020E061607006F0070027
:101F7000207006F0070020B92146286803F083FA94
:101F800003E02146286803F07EFA0020BDE8F081D6
:101F900070B504460E4606F007006168884201D914
:101FA000012070BD06F0800080280AD106F00700ED
:101FB00000EB800104F1280000EBC10501206870EE
:101FC00007E006EB860104F5B47000EBC1050020C4
:101FD00068700120A87006F00700287000BF94F810
:101FE000A802012801D10220DBE7012084F8A80221
:101FF00000BF2946206803F018FA00BF002084F8CB
:10200000A80200BF00BFCCE72DE9F04105460E460F
:1020100090461F4606F0070000EB800105F12800FE
:1020200000EBC104C4F81480A761012084F82400E7
:1020300027620020E0610120607006F00700207038
:1020400006F0070020B92146286803F01CFA03E0D7
:102050002146286803F017FA0020BDE8F08110B58A
:102060000446206803F0E6FF00F40040B0F5004F9E
:1020700002D1204601F008FA206803F0DBFF00F4EB
:102080008060B0F5806F0FD12068B0F844004FF643
:10209000FF3108402168A1F84400204600F048F9CB
:1020A0000021204600F064F9206803F0C3FF00F42B
:1020B0008040B0F5804F08D12068B0F844004BF65E
:1020C000FF7108402168A1F84400206803F0B2FFC6
:1020D00000F40050B0F5005F08D12068B0F844006B
:1020E0004DF6FF7108402168A1F84400206803F014
:1020F000A1FF00F48050B0F5805F1DD12068B0F8DA
:1021000040004FF6FB7108402168A1F840002068AC
:10211000B0F840004FF6F77108402168A1F8400080
:10212000204600F017F92068B0F844004EF6FF7121
:1021300008402168A1F84400206803F07BFF00F408
:102140000060B0F5006F1BD12068B0F8400040F08F
:1021500008002168A1F840002068B0F844004FF260
:10216000FF7108402168A1F844002068B0F84000E1
:1021700040F004002168A1F84000204600F03AF940
:10218000206803F057FF00F40070B0F5007F0BD11A
:102190002068B0F844004FF6FF5108402168A1F8CC
:1021A0004400204600F0DDF8206803F043FF00F40F
:1021B0008070B0F5807F08D12068B0F844004FF6F9
:1021C000FF6108402168A1F8440010BD30B585B01A
:1021D000044614B9012005B030BD94F8A90228B90D
:1021E000002084F8A802204600F080F8032084F83C
:1021F000A902206803F0A2F8002531E0012105EBD7
:10220000850204F1280000EBC200417005EB850156
:1022100004F1280000F8315005EB850100EBC10006
:10222000C581002105EB850204F1280000EBC20006
:10223000C17005EB850204F1280000EBC2000161CA
:1022400005EB850204F1280000EBC200416105EBBB
:10225000850204F1280000EBC2008161681CC5B250
:102260006068A842CAD800252AE0002105EB850253
:1022700004F5B47000EBC200417005EB850104F574
:10228000B47000F83150002105EB850200EBC2006C
:10229000C17005EB850204F5B47000EBC20001616A
:1022A00005EB850204F5B47000EBC200416105EB5B
:1022B000850204F5B47000EBC2008161681CC5B2F0
:1022C0006068A842D1D8142204F110016846FDF7D5
:1022D00078FF94E80F0003F026F8002084F824002B
:1022E000012084F8A902002075E7000038B50446F3
:1022F0000D492068884215D100BF0C48006840F4A1
:1023000000000A4908600846006800F400000090D8
:1023100000BF00BF002211461420FFF769F9142006
:10232000FFF756F938BD0000005C00402438024039
:1023300070B504460125A068022801D0FEF7E7FA2F
:102340002946D4F8E80202F05DF9D4F8E80202F078
:1023500013F970BD10B50446D4F8E80202F03AF95A
:1023600010BD10B50446D4F8E80202F03AF910BDE9
:1023700070B504460D4600BF94F8A802012801D1AB
:10238000022070BD012084F8A80200BF84F8245008
:102390002946206803F077FE00BF002084F8A802D9
:1023A00000BF00BFEDE710B5044604F52C71D4F86A
:1023B000E80202F03EF910BD10B5044600BF94F8E3
:1023C000A802012801D1022010BD012084F8A80232
:1023D00000BF206803F01CFE01212046FFF77CF9B6
:1023E000206802F09DFF00BF002084F8A80200BF13
:1023F00000BFE9E710B50446D4F8E80202F072F92C
:10240000A06928B10348006840F00600014908604F
:1024100010BD000010ED00E02DE9F04104460D462E
:1024200014B90120BDE8F0817E48006800F0010089
:10243000A84218D200BF012D05D17A48006840F0AB
:102440000400784908607748006820F001002843BC
:102450007449086000BF0846006800F00100A84207
:1024600001D00120DEE7207800F00200022807D129
:102470006D48006820F0F000A16808436A490860D0
:10248000207800F0010000287FD06068022807D182
:1024900065480838006800F40030F8B90120C1E749
:1024A0006068032807D160480838006800F00070B1
:1024B000A0B90120B6E76068012807D15A4808385A
:1024C000006800F0020048B90120ABE75648083820
:1024D000006800F4007008B90120A3E752480068C2
:1024E00020F00300616808434F490860FEF724FBB1
:1024F00006466068022810D108E0FEF71DFB801B2D
:1025000041F28831884201D903208BE746480068B0
:1025100000F00C000828F0D137E06068032810D1E3
:1025200008E0FEF709FB801B41F28831884201D99F
:10253000032077E73C48006800F00C000C28F0D13D
:1025400023E06068012810D108E0FEF7F5FA801B4F
:1025500041F28831884201D9032063E7324800689C
:1025600000F00C000428F0D10FE008E0FEF7E4FAD8
:10257000801B41F28831884201D9032052E72A4862
:10258000006800F00C000028F0D12648006800F038
:102590000100A84218D900BF012D05D121480068CB
:1025A00040F004001F4908601E48006820F0010048
:1025B00028431C49086000BF0846006800F001007D
:1025C000A84201D001202DE7207800F00400042863
:1025D00007D11548006820F4E060E168084312491B
:1025E0000860207800F00800082808D10E4800682C
:1025F00020F46050216940EAC1000B49086000F0F6
:1026000031F809490968C1F30311084A515CC8400F
:102610000749086007480068FEF780FF074638460C
:1026200000E70000003C02400838024095770008AF
:102630006C00002064000020014800687047000022
:102640006C00002000B5FFF7F7FF04490968C1F3EB
:102650000221034A515CC84000BD00000838024016
:10266000A57700082DE9F05F2248D0F8009009F026
:102670000C0070B3042804D0082804D00C2829D1F9
:1026800003E01D4D32E01D4D30E01D48C9F383418C
:1026900010F801A0C9F38150441C1648006800F4EA
:1026A000803050B11548A0FB0A7001462246002335
:1026B0003846FDF755FD064609E00F48A0FB0A70B5
:1026C0000146224600233846FDF74AFD06463546B8
:1026D0000CE000E000BF0748001F0068C0F3423B69
:1026E0000BF1010001218140CD0300BF00BF28464E
:1026F000BDE8F09F083802400024F40000127A0080
:102700008C7700082DE9F843044614B90120BDE890
:10271000F883FE48006800F00C06FC48006800F4EE
:102720008037207800F00100002875D0082E04D0F2
:102730000C2E0ED1B7F5803F0BD1F4480838006855
:1027400000F40030002867D06068002864D10120C0
:10275000DDE700BF6068012808D1EC480838006850
:1027600040F48030E949083908602DE0606868B9B4
:10277000E6480838006820F48030E44908390860E9
:102780000846006820F4802008601DE06068052885
:102790000DD1DE480838006840F48020DB49083954
:1027A00008600846006840F4803008600CE0D748B4
:1027B0000838006820F48030D44908390860084699
:1027C000006820F48020086000BF606890B1FEF7C8
:1027D000B3F9054606E0FEF7AFF9401B642801D9BE
:1027E000032094E7C9480838006800F40030002846
:1027F000F1D011E0FEF7A0F9054606E0FEF79CF9DE
:10280000401B642801D9032081E7C04808380068CC
:1028100000F400300028F1D1207800F002000228F6
:1028200053D1042E02D00C2E17D1B7B9B7480838AF
:10283000006800F0020020B1E068012801D001200A
:1028400065E7B248001F006820F4F850216940EAAB
:102850000120AE49091F086037E0E06800B301209D
:10286000AB490860FEF768F9054606E0FEF764F933
:10287000401B022801D9032049E7A4480838006812
:1028800000F002000028F1D0A048001F006820F4EA
:10289000F850216940EA01209C49091F086014E0B2
:1028A00000209B490860FEF747F9054606E0FEF761
:1028B00043F9401B022801D9032028E79348083830
:1028C000006800F002000028F1D1207800F010002C
:1028D000102871D1F6BB8D480838006800F40070EC
:1028E00018B1A06908B9012011E78849091F206AB9
:1028F000096801F46041884219D9206A00F0BEFFDE
:1029000008B1012003E78148001F006820F46040FF
:10291000216A08437D49091F0860217F7B48001F09
:10292000006861F31F607949091F08601AE0774861
:10293000001F006820F46040216A08437349091FA2
:102940000860217F7148001F006861F31F606F49B4
:10295000091F00E020E00860206A00F08FFF08B146
:102960000120D4E60121206A01EB5031012088408A
:10297000C00366490968C1F30311664A515CC84047
:102980006549086065480068FEF7C8FD8046B8F1F3
:10299000000F42D04046BAE6A06948B301205C4926
:1029A0000862FEF7C9F8054607E0FEF7C5F8401BC8
:1029B000022802D90320AAE62FE05448083800680C
:1029C00000F400700028F0D05048001F006820F488
:1029D0006040216A08434D49091F0860217F4B4828
:1029E000001F006861F31F604849091F086014E078
:1029F000002047490862FEF79FF8054606E0FEF70B
:102A00009BF8401B022801D9032080E63F48083884
:102A1000006800F400700028F1D1207800F0080070
:102A200008282CD16069A8B101203D490860FEF753
:102A300083F8054606E0FEF77FF8401B022801D91F
:102A4000032064E631482C30006800F002000028C2
:102A5000F1D014E0002032490860FEF76DF8054619
:102A600006E0FEF769F8401B022801D903204EE674
:102A700026482C30006800F002000028F1D12078B0
:102A800000F0040004286ED14FF000091F481C30EC
:102A9000006800F0805088B900BF1C481C300068F6
:102AA00040F0805019491C3108600846006800F069
:102AB0008050009000BF00BF4FF001091948006826
:102AC00000F48070B0B91748006840F48070154970
:102AD0000860FEF731F8054606E0FEF72DF8401BCA
:102AE000642801D9032012E60E48006800F48070C3
:102AF0000028F2D000BFA068012817D103482C306D
:102B0000006840F4807001492C310DE00838024023
:102B100000004742957700086C0000206400002008
:102B20008006474200700040086028E0A06858B95D
:102B30006648006820F480706449086008460068B0
:102B400020F4806008601AE0A06805280CD15F4876
:102B5000006840F480605D4908600846006840F401
:102B6000807008600BE040E05848006820F48070F6
:102B7000564908600846006820F48060086000BF7D
:102B8000A06898B1FDF7D8FF054608E0FDF7D4FF2F
:102B9000401B41F28831884201D90320B7E54B48F8
:102BA000006800F400700028F0D012E0FDF7C4FFC8
:102BB000054608E0FDF7C0FF401B41F2883188421E
:102BC00001D90320A3E54148006800F40070002803
:102BD000F0D1B9F1010F07D13C481038006820F05E
:102BE00080503A491039086000BF606AA8B30C2EC3
:102BF00052D0606A022839D1002035490866FDF7B5
:102C00009BFF054606E0FDF797FF401B022801D910
:102C100003207CE52D483438006800F0007000285F
:102C2000F1D1D4E90A010843216B084327492C3923
:102C3000096821F47D01084324492C3908600120EA
:102C400023490866FDF778FF054607E0FDF774FFA6
:102C5000401B022802D9032059E535E01B483438CF
:102C6000006800F000700028F0D02DE00020184926
:102C70000866FDF761FF054606E0FDF75DFF401BB6
:102C8000022801D9032042E510483438006800F0DA
:102C900000700028F1D117E0606A012800D136E504
:102CA0000A482C38076807F48031A06A814209D1AC
:102CB00007F47011E06A814204D107F44001206BEF
:102CC000814201D0012022E5002020E53438024075
:102CD0000000474270B504462546681EB0F1807F6B
:102CE00001D301200FE0681E4FF0E02148610F2161
:102CF0004FF0FF3003F028FA00204FF0E021886108
:102D000007200861002070BD00BFFEE7014608688B
:102D10004069C0F38020B0B16FF480600A685061F0
:102D200000200863202081F83D00002081F83E004B
:102D3000086C40F00400086400BF002081F83C00EB
:102D400000BF012070470020FCE700002DE9F84398
:102D500004460D4690461E46E76A2068006840F427
:102D6000806021680860082F04D0012F02D017F579
:102D7000803F06D12068006840F4807021680860B8
:102D800008E0206B112805D12068006840F48070AD
:102D900021680860434600224FF00111204600964A
:102DA00000F0BEF960B12068006800F48070B0F5F2
:102DB000807F02D14FF4007020640320BDE8F883C7
:102DC0002069B0F5804F05D1E8B240F001002168DC
:102DD000086149E005F44070F02141EAE010216803
:102DE0000861334642462649204600F0DCF908B126
:102DF0000120E3E7E8B221680861334642462049F2
:102E0000891F204600F0CFF908B10120D6E700BFA6
:102E10000020009020684069009020688069009040
:102E200000BF00BF2068006840F48070216808601F
:102E3000434600224FF001112046009600F070F941
:102E400058B12068006800F48070B0F5807F02D12E
:102E50004FF4007020640320B0E705F44070F121C6
:102E600041EAE01021680861334642460449891F5F
:102E7000204600F098F908B101209FE700209DE767
:102E8000080001002DE9F84304460F46154699460F
:102E9000DDE908862068006840F4806021680860E9
:102EA0002068006840F48070216808604346002272
:102EB0004FF001112046009600F032F960B1206811
:102EC000006800F48070B0F5807F02D14FF400708C
:102ED00020640320BDE8F88307F0FE002168086144
:102EE000334642463E49204600F05DF908B10120D4
:102EF000F0E700BF00200090206840690090206843
:102F00008069009000BF00BF32464146204600F075
:102F1000ECF950B1206C042805D12068006840F419
:102F20000070216808600120D4E7B9F1010F03D1D6
:102F3000E8B22168086117E0C5F30720216808613D
:102F400032464146204600F0D0F950B1206C0428AA
:102F500005D12068006840F40070216808600120F5
:102F6000B8E7E8B22168086132464146204600F0E1
:102F7000BCF950B1206C042805D12068006840F4E9
:102F80000070216808600120A4E72068006840F410
:102F9000807021680860434600224FF001112046EE
:102FA000009600F0BDF858B12068006800F4807009
:102FB000B0F5807F02D14FF400702064032089E7D0
:102FC000F8B240F0010021680861334642460449E6
:102FD000204600F0E8F808B101207BE7002079E7FF
:102FE000020001002DE9F84304468846154699463B
:102FF000DDE908672068006840F480702168086097
:10300000334600224FF001112046009700F088F867
:1030100060B12068006800F48070B0F5807F02D154
:103020004FF4007020640320BDE8F88308F0FE0030
:10303000216808613B4632462149204600F0B3F83A
:1030400008B10120F0E700BF00200090206840692F
:10305000009020688069009000BF00BF3A4631466A
:10306000204600F042F950B1206C042805D12068B8
:10307000006840F40070216808600120D4E7B9F1CD
:10308000010F03D1E8B22168086117E0C5F30720FA
:10309000216808613A463146204600F026F950B1D1
:1030A000206C042805D12068006840F40070216875
:1030B00008600120B8E7E8B2216808610020B3E7A2
:1030C0000200010070B504460D46164620E0204679
:1030D000FFF71CFE08B1012070BD681CC0B1FDF7F0
:1030E0002BFD801BA84200D895B90020206320202A
:1030F00084F83D00002084F83E00206C40F0200061
:10310000206400BF002084F83C0000BF0120E3E7FA
:1031100020684069C0F380000028D8D00020DBE799
:103120002DE9F04104460D4617461E46DDF818808D
:103130001CE0701CD0B1FDF7FFFCA0EB0800B04212
:1031400000D89EB900202063202084F83D00002094
:1031500084F83E00206C40F02000206400BF002076
:1031600084F83C0000BF0120BDE8F081C5F30740B2
:1031700001280AD120684069A9B20840A9B2884252
:1031800001D101200BE0002009E020688069A9B28C
:103190000840A9B2884201D1012000E00020B842D5
:1031A000C7D00020E0E72DE9F04104460D46164661
:1031B0001F463DE020684069C0F38020E8B12068E8
:1031C000006840F40070216808606FF48060216836
:1031D000486100202063202084F83D00002084F80E
:1031E0003E00206C40F00400206400BF002084F802
:1031F0003C0000BF0120BDE8F081701CC0B1FDF7AC
:103200009BFCC01BB04200D896B900202063202050
:1032100084F83D00002084F83E00206C40F020003F
:10322000206400BF002084F83C0000BF0120E2E7DA
:10323000C5F3074001280AD120684069A9B20840B7
:10324000A9B2884201D101200BE0002009E02068EA
:103250008069A9B20840A9B2884201D1012000E0EA
:1032600000200028A6D00020C5E770B504460D4612
:10327000164632E020684069C0F30010A0B16FF03C
:1032800010002168486100202063202084F83D0060
:10329000002084F83E00206C206400BF002084F8E9
:1032A0003C0000BF012070BDFDF746FC801BA8421A
:1032B00000D895B900202063202084F83D0000202C
:1032C00084F83E00206C40F02000206400BF002005
:1032D00084F83C0000BF0120E5E720684069C0F3A6
:1032E00080100028C6D00020DDE770B504460D46EA
:1032F000164620E02046FFF709FD08B1012070BD09
:10330000681CC0B1FDF718FC801BA84200D895B915
:1033100000202063202084F83D00002084F83E0037
:10332000206C40F02000206400BF002084F83C00A6
:1033300000BF0120E3E720684069C0F3C010002807
:10334000D8D00020DBE730B50B46002100BF16E0E7
:103350000A24B4EB107F05D9302404EB107403F871
:10336000114005E0412404EB10740A3C03F81140BD
:10337000000100254C00641C1D554C1CE1B291421B
:10338000E6DB30BD08B500BF1A48006840F0040015
:10339000184908600846006800F00400009000BF6B
:1033A00000BF00BF0846006840F0200008600846E3
:1033B000006800F02000009000BF00BF00BF08467A
:1033C000006840F0010008600846006800F0010055
:1033D000009000BF00BF00BF0846006840F0020038
:1033E00008600846006800F00200009000BF00BFBF
:1033F00008BD00001C38024010B50B480B4908609E
:103400000B484860002109488160C1604FF4804149
:103410000161002141618161C1610162FDF792FB9F
:1034200008B1FDF774FA10BD005400408801002077
:10343000A086010010B500220D490E4800F0F2FEF2
:1034400008B1FDF764FA0C490A4801F081F908B1A6
:10345000FDF75DFA0949074800F0D3FB08B1FDF715
:1034600056FA044801F03EFA08B1FDF750FA10BDD3
:1034700000000020DC01002080000020500000201F
:1034800000BFFEE700BFFEE72DE9F0470546EAE191
:103490002868B0F844A00AF00F06002E7ED10AF08A
:1034A0001000B0BB00BF2968098848F60F7201EA16
:1034B000020040F400412A68118000BF05F1280491
:1034C0002868B0F85010207801EBC000801C2968F3
:1034D00001F5806131F81000C0F30900E061E16995
:1034E00060690844606100212846FEF707F995F8F5
:1034F00024000028CBD0A0690028C8D195F824006A
:1035000040F080002968A1F84C00002085F82400D4
:10351000A9E1FFE705F5B4742868B0F8008008F465
:10352000006030B32868B0F85010207801EBC0007C
:10353000801D296801F5806131F81000C0F3090091
:10354000E061A18B8BB2E28805F52C71286802F04E
:1035500075FD00BF2968098840F68F7201EA0200F4
:1035600040F080012A68118000BF2846FEF71BFF4B
:1035700079E108F40040002889D000BF2968098853
:1035800040F68F7201EA020040F080012A68118043
:1035900000BF2868B0F85010207800E06FE001EB21
:1035A000C000801D296801F5806131F81000C0F36A
:1035B0000900E061E06990B1606980B1B4F81CC0B5
:1035C0001FFA8CF3E2886169286802F037FDE1692F
:1035D00060690844606100212846FEF79FF828686A
:1035E000008800F40060002892D100BF2A68296892
:1035F000B1F850100A4402F20C41084600BF23699A
:1036000053B9038848F2FF3C03EA0C0303800388A4
:1036100043F4004303801EE023693E2B0DD800BF16
:1036200023695908237C03F0010303B1491C4FF6B9
:10363000FF7303EA812303800DE000BF236959096A
:10364000237C03F01F0303B9491E4FF4004343EAF0
:103650008123038000BF00BF00BF00BF2968098825
:103660004BF68F7201EA020080F4805080F4005023
:1036700040F4004141F080012A681180F3E07100BC
:10368000286830F8118008F4004000287ED000BF80
:103690007200296831F8121040F68F7201EA0200B8
:1036A00040F0800173002A6822F8131000BF06EB77
:1036B000860105F5B47000EBC104207BB0B9286821
:1036C000B0F85010207801EBC000801D296801F58A
:1036D000806131F81000C0F30907002F5BD0E28849
:1036E00061693B46286802F0A9FC54E0E0780228B2
:1036F00006D1424621462846FEF793F807464AE09F
:1037000000BF00BF22785200296831F8121048F635
:103710008F7201EA020040F4004141F0C0012378B9
:103720005B002A6822F8131000BF00BF217849000F
:10373000286830F8110000F48040A8B12868B0F87B
:103740005010207801EBC000801C296801F58061D1
:1037500031F81000C0F30907EFB1228961693B46D7
:10376000286802F06BFC16E02868B0F8501020784A
:1037700001EBC000801D296801F5806131F810005F
:10378000C0F309073FB16289616900E017E03B4679
:10379000286802F053FCE0693844E061606938440D
:1037A0006061A06910B12069B84204D92178284627
:1037B000FDF7B4FF03E02146286801F064FE08F03D
:1037C0008000B0B306EB860105F1280000EBC104D0
:1037D00000BF7200296831F8121048F60F7201EA32
:1037E000020040F4004173002A6822F8131000BF61
:1037F000E078032807D0E07828B1E07802282DD1BE
:1038000008F4807050BB2868B0F85010207801EBA5
:10381000C000801C296801F5806131F81000C0F3F8
:103820000909A069484505D9A069A0EB0900A06174
:1038300002E018E00020A061A06920B921782846A4
:10384000FDF75CFF0FE0606948446061E06948444F
:10385000E0612146286801F016FE04E04246214658
:103860002846FEF78AF82868B0F8440000F40040C3
:1038700000287FF40DAEBDE8F087704718B5034609
:1038800000222548006800F0F00050BB22481C30A0
:10389000006800F0805020B12048006800F4C0515A
:1038A00018E000BF1C481C30006840F080501A4CE3
:1038B0001C3420602046006800F08050009000BF5B
:1038C00000BF1648006800F4C0512046006820F090
:1038D00080502060B1F5C05F03D1B3F5404F00D1F7
:1038E000012200BF012A05D10D48006840F0040004
:1038F0000B4C20600A48006820F001001043084C7F
:10390000206000BF2046006800F00100904201D016
:10391000012018BD0020FCE708380240007000407C
:10392000003C0240704710B5FDF7DCFD10BD000003
:1039300000B593B0342106A8FCF75CFC142101A863
:10394000FCF758FC1448006820F4C05040F40060B4
:103950001149086001200690079002200F90C103D2
:103960001091C10411918105129106A8FEF7CAFEBB
:1039700008B1FCF7CCFF0F2001900320029000203B
:10398000039004900590012101A8FEF745FD08B1C0
:10399000FCF7BDFF13B000BD0070004070472DE97B
:1039A000F04104460D46D4F89062D4F89872D4F8E9
:1039B000900278B305EB850104F1140000EB81005F
:1039C000806808B305EB850104F1140000EB810069
:1039D00005EB8502816807F1280000EBC200006951
:1039E000B1FBF0F200FB121070B9002105EB85026B
:1039F00004F1140000EB8200816000231A4629467E
:103A0000204600F079FE02E00020C6F814020020F3
:103A1000BDE8F081FFE70220FAE770B504460E46E4
:103A2000D4F890523146204600F00EFDC5F80C0245
:103A3000D4F8900248B1D5F80402D4F89412CA68B8
:103A400005F503719047002070BD0220FCE770B5BA
:103A500004460E4600258121204600F00FFC00217F
:103A6000E1620121204600F009FC0021C4F8581150
:103A70008221204600F002FC00212164D4F890024B
:103A800050B1D4F8941248688047D4F8900201F0FD
:103A9000DCF80020C4F89002284670BD70B50546D9
:103AA000D5F89042D5F8940278B194F80002FF2836
:103AB0000BD094F8012294F80002D5F894128B6888
:103AC00021469847FF2084F80002002070BD0000C6
:103AD00001460A2008800148704700007400002059
:103AE000014643200880014870470000FC00002088
:103AF000014643200880014870470000B8000020BC
:103B00000146432008800148704700004001002022
:103B10002DE9F04104460F460026207C88B94FF479
:103B2000007302228121204600F0F6FC0121E162AF
:103B30004B020222204600F0EFFC0121C4F858118C
:103B40000FE0402302228121204600F0E5FC012104
:103B5000E16240230222204600F0DEFC0121C4F88D
:103B60005811082303228221204600F0D5FC0121B0
:103B700021644FF4077001F069F8C4F89002D4F89A
:103B8000900208B901261CE0D4F89052D4F894129F
:103B9000086880470020C5F81402C5F81802207C88
:103BA00040B94FF4007301212046D5F8042200F0FB
:103BB000CBFC06E0402301212046D5F8042200F08A
:103BC000C3FC3046BDE8F08170B50446D4F890528D
:103BD000D4F8900298B1207C40B94FF400730121D1
:103BE0002046D5F8042200F0AFFC06E04023012176
:103BF0002046D5F8042200F0A7FC002070BD02206A
:103C0000FCE70246022011B1C2F89412002070476E
:103C10000246D2F89032C3F804120020704710B563
:103C20000346D3F89042C4F80812C4F810220020CA
:103C300010BD2DE9FC4105460C46D5F890620020E8
:103C4000019000900027207800F0600040B3202809
:103C50005FD1E088E0B1207800F0800060B1E288B8
:103C60006078D5F894128B6831469847E2883146DF
:103C7000284600F0E6F812E0607886F80002A079A5
:103C800086F80102E2883146284600F0B9F806E0DD
:103C90006078D5F8941200228B68214698473EE060
:103CA000607820B10A2812D00B282AD11FE095F89D
:103CB0007402032805D102226946284600F0C1F8A3
:103CC00004E02146284600F08FF802271FE095F80F
:103CD0007402032805D1012201A9284600F0B1F899
:103CE00004E02146284600F07FF802270FE095F80F
:103CF0007402032804D02146284600F075F80227F4
:103D000005E02146284600F06FF8022700BF00BFFB
:103D100005E02146284600F067F8022700BF00BFF3
:103D20003846BDE8FC8170B50546D5F89042D5F817
:103D30009002A8B1D4F8140280B90120C4F814028A
:103D4000D4F810122963B4F8100283B281212846F6
:103D5000D4F8082200F0D0FC002070BD0120FCE760
:103D60000220FAE770B504460D46D4F88C022946C5
:103D7000426820469047002070BD70B504460D464D
:103D800094F87402012804D0022803D003280CD12F
:103D900001E000BF00BF6888012805D10020C4F8F9
:103DA0007C02204600F05EF804E02946204600F040
:103DB0001BF800BF00BF70BD70B506460C46154627
:103DC0002B4622460021304600F0BEFB002070BD8D
:103DD00070B506460C4615462B4622460021304655
:103DE00000F08AFC002070BD70B504460D468021AD
:103DF000204600F055FC0021204600F051FC70BD2B
:103E000070B504460E4615460320C4F86C024FF404
:103E1000A4700551001D05512B4632460021204655
:103E200000F092FB002070BD10B504460520C4F8D8
:103E30006C0200231A461946204600F085FB00203C
:103E400010BD70B504460E4615460220C4F86C023B
:103E5000E56125622B4632460021204600F04CFCED
:103E6000002070BD10B504460420C4F86C02002385
:103E70001A461946204600F03FFC002010BD000005
:103E800070B505460C462DB92246064906A000F03D
:103E90008AF904E02246034903A000F084F90148AE
:103EA00070BD00007804002043444320436F6E66D9
:103EB0006967000002461220088001487047000030
:103EC0001C00002070B505460C462DB92246064957
:103ED00006A000F068F904E02246034903A000F0C0
:103EE00062F9014870BD000078040020434443207B
:103EF000496E7465726661636500000002460420C5
:103F000008800148704700003000002070B5054669
:103F10000C462246024903A000F045F9004870BD56
:103F20007804002053544D6963726F656C65637447
:103F3000726F6E696373000070B505460C462DB94B
:103F40002246064906A000F02EF904E02246034965
:103F500003A000F028F9014870BD0000780400209B
:103F600053544D3332205669727475616C20436F1F
:103F70006D506F727400000070B505460C461A2033
:103F80002080FCF7C7FC014870BD00003400002011
:103F900070B504460D46E888012804D0294620461D
:103FA000FFF722FF1EE094F87402012804D00228D3
:103FB00003D0032810D109E000BF0020A060012237
:103FC00004F108012046FFF73CFF0AE00122211D11
:103FD0002046FFF736FF04E029462046FFF704FF9E
:103FE00000BF00BF70BDF8B504460E4670880012D1
:103FF00008287FD2DFE800F07E040C207E7E5F6D13
:10400000207CD4F888120A6869469047054676E015
:10401000207C40B9D4F88C02816A684688470546FE
:104020000221697007E0D4F88C02C16A68468847AB
:1040300005460221697062E0B078062834D2DFE8D4
:1040400000F0030B131B232B207CD4F888124A6842
:104050006946904705462CE0207CD4F888128A688F
:1040600069469047054624E0207CD4F88812CA6847
:104070006946904705461CE0207CD4F888120A69FE
:1040800069469047054614E0207CD4F888124A69B6
:104090006946904705460CE0207CD4F888128A696E
:1040A00069469047054604E031462046FFF79CFEEE
:1040B000F8BD00BF23E0207C30B9D4F88C02416BFE
:1040C0006846884705461AE031462046FFF78CFED1
:1040D000EEE7207C48B9D4F88C02016B684688472B
:1040E0000546072169700AE004E031462046FFF7E3
:1040F0007BFEDDE731462046FFF776FED8E700BFBE
:10410000BDF8000088B1F08878B1F088BDF80010E3
:10411000884202DDBDF8000000E0F0880090BDF8A4
:10412000002029462046FFF78CFEF08810B9204673
:10413000FFF798FE00BFBBE70146002002E0421CEB
:10414000D0B2491C0A78002AF9D1704770B50446EC
:104150000D4694F87402012804D0022803D00328E5
:104160001AD101E000BF00BFE888022804D0294628
:104170002046FFF739FE14E00120E060D4F87C020D
:1041800018B1E06840F00200E060022204F10C0186
:104190002046FFF756FE04E029462046FFF724FE9E
:1041A00000BF00BF70BD2DE9F04104460D46174623
:1041B0000026FCB12046FFF7BFFF022101EB4000C3
:1041C00038803A783046711CCEB22A5403223046E9
:1041D000711CCEB22A540AE014F8012B3046711C2F
:1041E000CEB22A5400223046711CCEB22A54207816
:1041F0000028F1D1BDE8F0810146002031B101294C
:1042000006D0022906D0032908D105E0002007E0E6
:10421000022005E0012003E0022001E0022000BFAF
:1042200000BF704770B504460D4616460CB9022013
:1042300070BDD4F88C0210B10020C4F88C020DB10E
:10424000C4F88852012084F874022670204600F0D9
:1042500005F90020ECE72DE9F04104460D46002663
:1042600000272946D4F89802FDF79DFA0646304605
:10427000FFF7C2FF07463846BDE8F0812DE9F0415F
:1042800004460D46002600272946D4F89802FDF77B
:1042900055FA06463046FFF7AFFF07463846BDE8F9
:1042A000F0812DE9F04104460E461746002E64D1F8
:1042B00004F11405D4F86C02022848D1D5E90301B1
:1042C000884210D9D5E90301401AE860A88982B272
:1042D00039462046FFF77CFD00231A461946204642
:1042E00000F032F93EE02969A868B0FBF1F201FB69
:1042F0001200B8B92969A868884213D3A868D4F80D
:10430000701288420ED2002211462046FFF760FD4F
:104310000020C4F8700200231A461946204600F017
:1043200013F91FE0D4F88C02C06840B194F874020D
:10433000032804D1D4F88C02C16820468847802124
:10434000204600F0ADF92046FFF76EFD0AE0D4F8F4
:104350006C02042802D0D4F86C0218B980212046DF
:1043600000F09EF994F87802012818D1204600F058
:10437000F7F9002084F8780211E0D4F88C02406943
:1043800050B194F87402032806D1D4F88C02314657
:1043900042692046904702E00220BDE8F0810020FB
:1043A000FBE72DE9F04104460E461746BEBB04F577
:1043B000A075D4F86C02032825D1D5E90301884201
:1043C00010D9D5E90301401AE860D5E90301884214
:1043D00001D2E86800E0286982B239462046FFF73A
:1043E000EBFC2FE0D4F88C02006940B194F8740221
:1043F000032804D1D4F88C0201692046884720465E
:10440000FFF730FD1EE0D4F86C0205281AD1002019
:10441000C4F86C020021204600F042F912E0FFE7E8
:10442000D4F88C02806950B194F87402032806D144
:10443000D4F88C02314682692046904702E002207F
:10444000BDE8F0810020FBE770B504460D46294623
:10445000D4F89802FDF725FD70BD000010B50446A4
:104460001D48C0F8E842C4F898021C481A49086080
:1044700008204860022118488160016100218161A3
:104480000162FDF7A3FE08B1FCF741FA04F52674BA
:104490001823002211462068FDF7FCF8582300225B
:1044A00080212068FDF7F6F8C023002281212068D2
:1044B000FDF7F0F84FF48873002201212068FDF722
:1044C000E9F82068A4F526744FF480730022822155
:1044D000FDF7E0F8002010BD480E0020005C004011
:1044E00010B50246D2F8983201F08000802809D138
:1044F00001F07F0000EB800403F1280000EBC40012
:10450000807810BD01F07F0000EB800403F5B470EB
:1045100000EBC4008078F4E72DE9F04704460F462D
:1045200015461E464FF00008C1462B463246394616
:10453000D4F89802FDF7C0FC80464046FFF75CFEC9
:1045400081464846BDE8F0872DE9F04704460D4610
:1045500016461F464FF00008C1463B4632462946E4
:10456000D4F89802FDF7EEFC80464046FFF744FE83
:1045700081464846BDE8F08710B504464023002236
:1045800011462046FFF7C8FF01214FF4A2700151E8
:1045900040214FF4A8700151402300228021204681
:1045A000FFF7BAFF0121A16140216162012084F877
:1045B00074020020C4F86C026060C4F87C02D4F875
:1045C000900228B12179D4F88C02426820469047A5
:1045D000002010BD014691F8750281F87402002098
:1045E000704710B5044694F87402032808D1D4F833
:1045F0008C02C06920B1D4F88C02C169204688477A
:10460000002010BD02461174002070472DE9F041D2
:1046100004460D46002600272946D4F89802FDF7E7
:10462000A7FE06463046FFF7E7FD07463846BDE8D9
:10463000F08170B504460D46294604F5207000F05F
:1046400073F80120C4F86C0240F28620005BC4F8C5
:10465000700294F8800200F01F0020B1012808D0F9
:10466000022812D10BE004F52071204600F041F938
:1046700013E004F52071204600F0A8FA0DE004F5DF
:104680002071204600F086F907E094F8800200F0DF
:104690008001204600F004F800BF00BF002070BD7C
:1046A0002DE9F04104460D46002600272946D4F89E
:1046B0009802FDF76DFC06463046FFF79DFD074664
:1046C0003846BDE8F08170B5044600250026D4F8D0
:1046D0009802FDF771FE05462846FFF78DFD064658
:1046E000304670BD014691F8740281F875020420CD
:1046F00081F87402002070472DE9F04704460D460A
:1047000016461F464FF00008C1463B463246294632
:10471000D4F89802FDF778FC80464046FFF76CFD20
:1047200081464846BDE8F0870A7802704A784270B0
:104730008B78CA7803EB022242800B794A7903EB2B
:10474000022282808B79CA7903EB0222C2807047F1
:104750000246002011B1C2F88C1200E0022070471E
:1047600001460020704770B504460D46A88810BB6E
:10477000E88800BB688880281DD2A87800F07F06F2
:1047800094F87402032804D129462046FFF72CFB35
:1047900015E084F8766231462046FFF737FF204661
:1047A000FFF760FB1EB1022084F8740207E00120CD
:1047B00084F8740203E029462046FFF715FB70BD1C
:1047C00070B504460D460226D4F88C0238B1D4F8F0
:1047D0008C02294602682046904700B900263046E0
:1047E00070BD000070B504460D46A87836490870C3
:1047F00008460078012804D929462046FFF7F4FA34
:1048000060E094F87402022802D003284FD11CE023
:104810002D480078A8B12C4800786060032084F807
:104820007402294801782046FFF7CAFF022804D104
:1048300029462046FFF7D8FA70BD2046FFF712FB45
:1048400002E02046FFF70EFB3BE01F48007870B9FE
:10485000022084F874021C48007860601A480178CD
:104860002046FFF77FFA2046FFF7FCFA1EE01649C4
:1048700009786068884216D021792046FFF772FADD
:10488000114800786060104801782046FFF798FFD3
:10489000022804D129462046FFF7A6FACCE7204695
:1048A000FFF7E0FA02E02046FFF7DCFA09E02946CC
:1048B0002046FFF799FA044801782046FFF752FA9C
:1048C00000BF00BF00BFB7E77000002070B505460D
:1048D0000C466088012804D1C5F87C022846FFF701
:1048E000C1FA70BD10B504462046FFF7ECFE00206B
:1048F00010BD70B505460C460026207800F060001B
:1049000060B1202802D040283CD100E000BFD5F89B
:104910008C02214682682846904738E060780A2851
:1049200029D2DFE800F01923281E280A0528140FD1
:1049300021462846FFF757FB22E021462846FFF78D
:1049400012FF1DE021462846FFF74CFF18E02146E4
:104950002846FFF71DFB13E021462846FFF7F6FB2C
:104960000EE021462846FFF7B1FF09E02146284620
:10497000FFF703FA04E021462846FFF735FA00BFA7
:1049800000BF04E021462846FFF72EFA00BF00BF13
:10499000304670BD2DE9F04105460E464FF0000847
:1049A0003479307800F0600060B1202802D04028CF
:1049B00071D100E000BFD5F88C02314682682846EC
:1049C000904700E1307800F06000202809D1D5F848
:1049D0008C02314682682846904780464046BDE8B2
:1049E000F081707800285ED001282FD0032876D17E
:1049F00095F87402022802D0032820D110E054B1A7
:104A0000802C08D021462846FFF74AFE8021284600
:104A1000FFF746FE03E031462846FFF7E5F913E0CD
:104A2000708840B93CB1802C05D0F08818B9214677
:104A30002846FFF735FE2846FFF714FA04E0314612
:104A40002846FFF7D1F900BF00BFB5E095F8740222
:104A5000022802D003281FD110E054B1802C08D0C6
:104A600021462846FFF71CFE80212846FFF718FE46
:104A700003E031462846FFF7B7F912E0708848B9DD
:104A800004F07F0018B121462846FFF7E4FB2846D2
:104A9000FFF7E8F905E091E031462846FFF7A4F971
:104AA00000BF00BF88E095F87402022802D00328F6
:104AB00076D126E034B1802C04D031462846FFF769
:104AC00093F972E004F08000802809D104F07F009F
:104AD00000EB800105F1140000EB810008E066E0C6
:104AE00004F07F0000EB800105F5A07000EB810071
:104AF000074600203860022239462846FFF7A1F910
:104B000053E004F0800080280ED104F00F0000EB89
:104B1000800105F1140000EB8100406898B931462E
:104B20002846FFF761F940E004F00F0000EB800138
:104B300005F5A07000EB8100406820B93146284699
:104B4000FFF752F931E004F08000802808D104F02A
:104B50007F0000EB800105F1140000EB810007E00D
:104B600004F07F0000EB800105F5A07000EB8100F0
:104B700007460CB1802C02D10020386009E02146A4
:104B80002846FFF7ADFC10B10120386001E000209D
:104B90003860022239462846FFF753F905E0FFE75F
:104BA00031462846FFF720F900BF00BF04E0314638
:104BB0002846FFF719F900BF00BF04E03146284638
:104BC000FFF712F900BF00BF404608E770B5054681
:104BD0000C460026207800F0600030B1202802D07A
:104BE00040282AD100E000BF00BF95F874020128D8
:104BF00004D0022803D0032818D101E000BF00BF71
:104C0000207901280DD8D5F88C02214682682846E3
:104C100090470646E08840B93EB92846FFF722F99A
:104C200003E021462846FFF7DFF804E02146284646
:104C3000FFF7DAF800BF00BF04E021462846FFF77F
:104C4000D3F800BF00BF002070BD70470146014887
:104C50007047000034110020F0B5024600260878A5
:104C6000400032F8100048F68F1400EA0403C878B8
:104C700030B101280CD0022805D003280BD104E064
:104C800043F4007309E000BF07E043F4C06304E0AD
:104C900043F4806301E0012600BF00BF43F40040FD
:104CA00040F080000C78640022F8140000BF0C78FB
:104CB000640032F8144048F68F752C400D7844EAB1
:104CC000050040F4004444F080040D786D0022F8A3
:104CD000154000BF087B00287ED14878002852D0BC
:104CE00000BF1046B2F8505028440D7800F5806798
:104CF00007EB0514CD886D106D00258000BF00BF47
:104D00000C78640032F8140000F040048CB100BF4D
:104D10000D786D0032F8155048F68F7705EA0704D4
:104D200044F4004545F0C0050F787F0022F8175085
:104D300000BF00BFC878012813D000BF0C78640002
:104D400032F8144048F6BF7504EA050080F02000F0
:104D500040F4004444F080040D786D0022F81540C2
:104D60009EE100BF0C78640032F8144048F6BF752D
:104D700004EA050040F4004444F080040D786D001E
:104D800022F815408CE100BF1046B2F8505028447C
:104D90000D78042707EBC50500F5806707EB450490
:104DA000CD886D106D00258000BF00BF1546B2F89C
:104DB000504025440C78062707EBC40405F58067AE
:104DC00007EB4404204600BF0F6967B9078848F223
:104DD000FF3C07EA0C0700E057E00780078847F42C
:104DE000004707801EE00F693E2F0DD800BF0F69F6
:104DF0007C080F7C07F0010707B1641C4FF6FF77B2
:104E000007EA842707800DE000BF0F697C090F7C4B
:104E100007F01F0707B9641E4FF4004747EA8427CD
:104E2000078000BF00BF00BF00BF0C78640032F8ED
:104E3000140000F480448CB100BF0D786D0032F88E
:104E4000155048F68F7705EA070444F4004545F409
:104E500081450F787F0022F8175000BF00BF00BFC8
:104E60000C78640032F814404BF68F7504EA0500A4
:104E700080F4805080F4005040F4004444F08004FA
:104E80000D786D0022F815400AE100BF0C7864002F
:104E900032F8144048F68F7504EA050040F40044E7
:104EA00044F4C0740D786D0022F8154000BF00BFB7
:104EB00000BF00BF1046B2F8505028440D7800F5EE
:104EC000806707EB05140D896D106D00258000BF0C
:104ED00000BF00BF00BF1046B2F8505028440D7804
:104EE000042707EBC50500F5806707EB45044D89EE
:104EF0006D106D00258000BF00BF00BF48780028FE
:104F00005DD100BF0C78640032F8140000F48044D6
:104F10008CB100BF0D786D0032F8155048F68F77D0
:104F200005EA070444F4004545F481450F787F0005
:104F300022F8175000BF00BF00BF0C78640032F8A1
:104F4000140000F040048CB100BF0D786D0032F801
:104F5000155048F68F7705EA070444F4004545F0FC
:104F6000C0050F787F0022F8175000BF00BF00BFB8
:104F70000C78640032F814404BF68F7504EA050093
:104F800080F4805080F4005040F4004444F08004E9
:104F90000D786D0022F8154000BF00BF0C7864004A
:104FA00032F8144048F6BF7504EA050040F40044A6
:104FB00044F080040D786D0022F8154070E000BFC9
:104FC0000C78640032F8140000F480448CB100BF07
:104FD0000D786D0032F8155048F68F7705EA070412
:104FE00044F4004545F481450F787F0022F81750BE
:104FF00000BF00BF00BF0C78640032F8140000F05E
:1050000040048CB100BF0D786D0032F8155048F6A1
:105010008F7705EA070444F4004545F0C0050F7892
:105020007F0022F8175000BF00BFC878012813D0B6
:1050300000BF0C78640032F8144048F6BF7504EAEB
:10504000050080F0200040F4004444F080040D7816
:105050006D0022F8154011E000BF0C78640032F8B2
:10506000144048F6BF7504EA050040F4004444F0DB
:1050700080040D786D0022F8154000BF00BF0C7849
:10508000640032F814404BF68F7504EA050040F4D2
:10509000004444F080040D786D0022F8154000BFF4
:1050A0003046F0BD30B50246087B00285BD1487819
:1050B00060B300BF0B785B0032F8130000F04003D0
:1050C0008BB100BF0C78640032F8144048F68F753D
:1050D00004EA050343F4004444F0C0040D786D0075
:1050E00022F8154000BF00BF00BF0B785B0032F80C
:1050F000133048F6BF7403EA040040F4004343F061
:1051000080030C78640022F8143007E100BF0B78AC
:105110005B0032F8130000F480438BB100BF0C78C1
:10512000640032F8144048F68F7504EA050343F42E
:10513000004444F481440D786D0022F8154000BF0E
:1051400000BF00BF0B785B0032F813304BF68F7452
:1051500003EA040040F4004343F080030C78640049
:1051600022F81430DAE0487800286BD100BF0B78C1
:105170005B0032F8130000F480438BB100BF0C7861
:10518000640032F8144048F68F7504EA050343F4CE
:10519000004444F481440D786D0022F8154000BFAE
:1051A00000BF00BF0B785B0032F8130000F0400333
:1051B0008BB100BF0C78640032F8144048F68F754C
:1051C00004EA050343F4004444F0C0040D786D0084
:1051D00022F8154000BF00BF00BF0B785B0032F81B
:1051E000133048F68F7403EA040040F4004343F0A0
:1051F000C0030C78640022F8143000BF00BF0B78A5
:105200005B0032F813304BF68F7403EA040040F46D
:10521000004343F080030C78640022F8143000BF90
:1052200000BF0B785B0032F8133048F6BF7403EA16
:10523000040040F4004343F080030C78640022F83B
:1052400014306BE000BF0B785B0032F8130000F401
:1052500080438BB100BF0C78640032F8144048F6EC
:105260008F7504EA050343F4004444F481440D7847
:105270006D0022F8154000BF00BF00BF0B785B0037
:1052800032F8130000F040038BB100BF0C786400CB
:1052900032F8144048F68F7504EA050343F40044DD
:1052A00044F0C0040D786D0022F8154000BF00BF27
:1052B00000BF0B785B0032F8133048F68F7403EAB6
:1052C000040040F4004343F481430C78640022F866
:1052D000143000BF00BF0B785B0032F8133048F683
:1052E000BF7403EA040040F4004343F080030C78E9
:1052F000640022F8143000BF00BF0B785B0032F866
:1053000013304BF68F7403EA040040F4004343F07B
:1053100080030C78640022F8143000BF002030BDF8
:1053200001460020704710B50446012024F8400FC4
:1053300000202080A0802082403C10BD01464FF418
:105340003F42B1F840009043A1F840000020704770
:1053500030B50246087B002865D1487888B300BF85
:105360000B785B0032F8130000F040038BB100BFF4
:105370000C78640032F8144048F68F7504EA05038F
:1053800043F4004444F0C0040D786D0022F8154049
:1053900000BF00BFC878012845D000BF0B785B0074
:1053A00032F8133048F6BF7403EA040080F020009E
:1053B00040F4004343F080030C78640022F814307A
:1053C00031E0FFE700BF0B785B0032F8130000F418
:1053D00080438BB100BF0C78640032F8144048F66B
:1053E0008F7504EA050343F4004444F481440D78C6
:1053F0006D0022F8154000BF00BF00BF0B785B00B6
:1054000032F813304BF68F7403EA040080F48050B6
:1054100080F4005040F4004343F080030C786400B3
:1054200022F8143000BF002030BD10B50246487885
:1054300098B100BF0B785B0032F8133048F6BF74A8
:1054400003EA040080F0100040F4004343F08003BE
:105450000C78640022F8143013E000BF0B785B0076
:1054600032F813304BF68F7403EA040080F4805056
:1054700040F4004343F080030C78640022F81430B9
:1054800000BF002010BD2DE9F04706460C466078AD
:10549000012876D12169A069884201D9256900E0F7
:1054A000A569207BA0B9ABB2E2883046616900F003
:1054B000F1FD00BF3046B6F8502010442278022398
:1054C00003EBC20200F5806303EB42010D8081E330
:1054D000E07802287DD12169206A88427AD900BF0C
:1054E0002178490036F8111048F68F7201EA02005F
:1054F00040F4004141F4C0712278520026F81210A5
:1055000000BF206A401B20622078400036F810005F
:1055100000F0400000287DD000BF3346607888BB93
:1055200000BF3246B6F850100A4421784FF0060901
:1055300009EBC10102F5806909EB4101084600BF92
:1055400075B9B0F8009048F2FF3A09EA0A09A0F8E4
:105550000090B0F8009049F40049A0F8009021E0D4
:105560003E2D10D800BF690805F00109B9F1000F00
:1055700000D0491C4FF6FF7909EA8129A0F8009074
:1055800010E03DE310E000BF690905F01F09B9F123
:10559000000F00D1491E4FF4004949EA8129A0F8C3
:1055A000009000BF00BF0FE0607801280CD1B6F872
:1055B000500003442078062101EBC00003F5806110
:1055C00001EB400CACF8005000BF6789ABB23A4623
:1055D00001E057E12CE13046616900F05BFD606954
:1055E000284460612169206A884203D9206A401BEF
:1055F000206202E0256A0020206200BF6078C0BB04
:1056000000BF3246B6F850100A442178022303EB5B
:10561000C10100E049E002F5806303EB4101084667
:1056200000BF55B9038848F2FF3C03EA0C0303802E
:10563000038843F40043038019E03E2D0BD800BFDC
:10564000690805F0010303B1491C4FF6FF7303EA33
:10565000812303800BE000BF690905F01F0303B934
:10566000491E4FF4004343EA8123038000BF00BF7B
:1056700012E0FFE7607801280ED100BF3046B6F88F
:10568000502010442278022303EBC20200F580630D
:1056900003EB42010D8000BF00BF2789ABB23A4641
:1056A0003046616900F0F6FC94E200BF6078B0BB60
:1056B00000BF3246B6F850100A442178022303EBAB
:1056C000C10102F5806303EB4101084600BF55B9F3
:1056D000038848F2FF3C03EA0C030380038843F489
:1056E0000043038019E03E2D0BD800BF690805F088
:1056F000010303B1491C4FF6FF7303EA81230380C2
:105700000BE000BF690905F01F0303B9491E4FF400
:10571000004343EA8123038000BF00BF12E0FFE79C
:10572000607801280ED100BF3046B6F850201044F2
:105730002278022303EBC20200F5806303EB4201EF
:105740000D8000BF00BF2789ABB23A463046616981
:1057500000F0A0FC6069284460612169206A8842E9
:1057600003D9206A401B206202E0256A00202062E3
:1057700000BF3346607880BB00BF3246B6F8501099
:105780000A4421784FF0060909EBC10102F580694E
:1057900009EB4101084600BF75B9B0F8009048F226
:1057A000FF3A09EA0A09A0F80090B0F8009049F41D
:1057B0000049A0F8009020E03E2D0FD800BF6908F6
:1057C00005F00109B9F1000F00D0491C4FF6FF792F
:1057D00009EA8129A0F800900FE010E000BF6909F4
:1057E00005F01F09B9F1000F00D1491E4FF400491F
:1057F00049EA8129A0F8009000BF00BF0FE060785F
:1058000001280CD1B6F8500003442078062101EBA2
:10581000C00003F5806101EB400CACF8005000BF04
:105820006789ABB23A463046616900F033FCD1E19A
:10583000256A00BF2178490036F8111048F68F62BA
:1058400001EA020040F4004141F080012278520058
:1058500026F8121000BF00BF3046B6F850201044A2
:105860002278022303EBC20200F5806303EB4201BE
:105870000D8000BF2789ABB23A463046616900F01F
:1058800009FCA7E100BF2178490036F8111048F65D
:105890008F7201EA020040F4004141F4C0712278A5
:1058A000520026F8121000BF206A401B20622078A8
:1058B000400036F8100000F0400000287DD000BF06
:1058C0003346607880BB00BF3246B6F850100A44B9
:1058D00021784FF0060909EBC10102F5806909EB57
:1058E0004101084600BF75B9B0F8009048F2FF3A90
:1058F00009EA0A09A0F80090B0F8009049F40049BC
:10590000A0F8009020E03E2D0FD800BF690805F0F8
:105910000109B9F1000F00D0491C4FF6FF7909EADF
:105920008129A0F800900FE010E000BF690905F0A0
:105930001F09B9F1000F00D1491E4FF4004949EA8F
:105940008129A0F8009000BF00BF0FE06078012817
:105950000CD1B6F8500003442078062101EBC000BA
:1059600003F5806101EB400CACF8005000BF678983
:10597000ABB23A463046616900F08CFB606928445E
:1059800060612169206A884203D9206A401B206235
:1059900002E0256A00202062002D56D000BF60780A
:1059A000C0BB00BF3246B6F850100A44217802232B
:1059B00003EBC10102F5806300E047E003EB410126
:1059C000084600BF55B9038848F2FF3C03EA0C03C0
:1059D0000380038843F40043038019E03E2D0BD875
:1059E00000BF690805F0010303B1491C4FF6FF73BE
:1059F00003EA812303800BE000BF690905F01F0360
:105A000003B9491E4FF4004343EA8123038000BFDA
:105A100000BF12E0FFE7607801280ED100BF3046DA
:105A2000B6F8502010442278022303EBC20200F59E
:105A3000806303EB42010D8000BF00BF2789ABB23A
:105A40003A463046616900F025FBC3E000BF60784C
:105A5000B0BB00BF3246B6F850100A44217802238A
:105A600003EBC10102F5806303EB4101084600BF6F
:105A700055B9038848F2FF3C03EA0C03038003880E
:105A800043F40043038019E03E2D0BD800BF6908A2
:105A900005F0010303B1491C4FF6FF7303EA8123AC
:105AA00003800BE000BF690905F01F0303B9491E1D
:105AB0004FF4004343EA8123038000BF00BF12E09C
:105AC000FFE7607801280ED100BF3046B6F85020BD
:105AD00010442278022303EBC20200F5806303EB3B
